{
  "contractName": "Game",
  "abi": [
    {
      "constant": true,
      "inputs": [],
      "name": "ceoAddress",
      "outputs": [
        {
          "name": "",
          "type": "address"
        }
      ],
      "payable": false,
      "stateMutability": "view",
      "type": "function"
    },
    {
      "constant": true,
      "inputs": [
        {
          "name": "",
          "type": "uint256"
        },
        {
          "name": "",
          "type": "address"
        }
      ],
      "name": "questionAnswer",
      "outputs": [
        {
          "name": "",
          "type": "bytes32"
        }
      ],
      "payable": false,
      "stateMutability": "view",
      "type": "function"
    },
    {
      "constant": true,
      "inputs": [
        {
          "name": "",
          "type": "uint256"
        },
        {
          "name": "",
          "type": "uint256"
        }
      ],
      "name": "questionPlayer",
      "outputs": [
        {
          "name": "",
          "type": "address"
        }
      ],
      "payable": false,
      "stateMutability": "view",
      "type": "function"
    },
    {
      "constant": true,
      "inputs": [
        {
          "name": "",
          "type": "address"
        }
      ],
      "name": "winCount",
      "outputs": [
        {
          "name": "",
          "type": "uint256"
        }
      ],
      "payable": false,
      "stateMutability": "view",
      "type": "function"
    },
    {
      "constant": false,
      "inputs": [
        {
          "name": "_newCeo",
          "type": "address"
        }
      ],
      "name": "setCeo",
      "outputs": [],
      "payable": false,
      "stateMutability": "nonpayable",
      "type": "function"
    },
    {
      "constant": true,
      "inputs": [
        {
          "name": "",
          "type": "uint256"
        },
        {
          "name": "",
          "type": "uint256"
        }
      ],
      "name": "questionWinner",
      "outputs": [
        {
          "name": "",
          "type": "address"
        }
      ],
      "payable": false,
      "stateMutability": "view",
      "type": "function"
    },
    {
      "constant": true,
      "inputs": [],
      "name": "bounty",
      "outputs": [
        {
          "name": "",
          "type": "uint256"
        }
      ],
      "payable": false,
      "stateMutability": "view",
      "type": "function"
    },
    {
      "constant": true,
      "inputs": [],
      "name": "deadlineQuestion",
      "outputs": [
        {
          "name": "",
          "type": "uint256"
        }
      ],
      "payable": false,
      "stateMutability": "view",
      "type": "function"
    },
    {
      "constant": true,
      "inputs": [
        {
          "name": "",
          "type": "uint256"
        }
      ],
      "name": "winners",
      "outputs": [
        {
          "name": "",
          "type": "address"
        }
      ],
      "payable": false,
      "stateMutability": "view",
      "type": "function"
    },
    {
      "constant": true,
      "inputs": [],
      "name": "questionBounty",
      "outputs": [
        {
          "name": "",
          "type": "uint256"
        }
      ],
      "payable": false,
      "stateMutability": "view",
      "type": "function"
    },
    {
      "constant": true,
      "inputs": [],
      "name": "currentQuestion",
      "outputs": [
        {
          "name": "",
          "type": "uint8"
        }
      ],
      "payable": false,
      "stateMutability": "view",
      "type": "function"
    },
    {
      "constant": true,
      "inputs": [
        {
          "name": "",
          "type": "uint256"
        }
      ],
      "name": "asked",
      "outputs": [
        {
          "name": "",
          "type": "bool"
        }
      ],
      "payable": false,
      "stateMutability": "view",
      "type": "function"
    },
    {
      "constant": true,
      "inputs": [
        {
          "name": "",
          "type": "uint256"
        }
      ],
      "name": "players",
      "outputs": [
        {
          "name": "",
          "type": "address"
        }
      ],
      "payable": false,
      "stateMutability": "view",
      "type": "function"
    },
    {
      "inputs": [
        {
          "name": "_ceoAddress",
          "type": "address"
        }
      ],
      "payable": false,
      "stateMutability": "nonpayable",
      "type": "constructor"
    },
    {
      "anonymous": false,
      "inputs": [
        {
          "indexed": false,
          "name": "currentQuestion",
          "type": "uint8"
        }
      ],
      "name": "NewQuestion",
      "type": "event"
    },
    {
      "constant": false,
      "inputs": [],
      "name": "setBounty",
      "outputs": [],
      "payable": true,
      "stateMutability": "payable",
      "type": "function"
    },
    {
      "constant": false,
      "inputs": [
        {
          "name": "playerAlias",
          "type": "address"
        }
      ],
      "name": "transferAlias",
      "outputs": [],
      "payable": true,
      "stateMutability": "payable",
      "type": "function"
    },
    {
      "constant": false,
      "inputs": [
        {
          "name": "player",
          "type": "address"
        }
      ],
      "name": "withdrawFromAlias",
      "outputs": [],
      "payable": true,
      "stateMutability": "payable",
      "type": "function"
    },
    {
      "constant": false,
      "inputs": [
        {
          "name": "_correctAnswer",
          "type": "bytes32"
        }
      ],
      "name": "setQuestion",
      "outputs": [],
      "payable": false,
      "stateMutability": "nonpayable",
      "type": "function"
    },
    {
      "constant": false,
      "inputs": [
        {
          "name": "_answer",
          "type": "bytes32"
        }
      ],
      "name": "answer",
      "outputs": [],
      "payable": true,
      "stateMutability": "payable",
      "type": "function"
    },
    {
      "constant": false,
      "inputs": [],
      "name": "shareQuestionBounty",
      "outputs": [],
      "payable": false,
      "stateMutability": "nonpayable",
      "type": "function"
    },
    {
      "constant": false,
      "inputs": [],
      "name": "shareBounty",
      "outputs": [],
      "payable": false,
      "stateMutability": "nonpayable",
      "type": "function"
    },
    {
      "constant": true,
      "inputs": [],
      "name": "getAllPlayers",
      "outputs": [
        {
          "name": "",
          "type": "address[]"
        }
      ],
      "payable": false,
      "stateMutability": "view",
      "type": "function"
    },
    {
      "constant": true,
      "inputs": [
        {
          "name": "questionIndex",
          "type": "uint256"
        }
      ],
      "name": "getCorrectAddressByQuestion",
      "outputs": [
        {
          "name": "",
          "type": "address[]"
        }
      ],
      "payable": false,
      "stateMutability": "view",
      "type": "function"
    }
  ],
  "bytecode": "0x60806040526000601360006101000a81548160ff021916908360ff16021790555034801561002c57600080fd5b506040516020806123f08339810180604052602081101561004c57600080fd5b8101908080519060200190929190505050336000806101000a81548173ffffffffffffffffffffffffffffffffffffffff021916908373ffffffffffffffffffffffffffffffffffffffff160217905550806000806101000a81548173ffffffffffffffffffffffffffffffffffffffff021916908373ffffffffffffffffffffffffffffffffffffffff16021790555050612303806100ed6000396000f3fe608060405260043610610128576000357c0100000000000000000000000000000000000000000000000000000000900463ffffffff1680630454c1441461012d5780630a0f8168146101bd5780630afca22b146102145780630daff5fb1461025857806322d70fd4146102c757806338923a5c1461034c57806354bd5023146103875780636dbe21b8146103ec5780638807cb40146103f657806388975198146104245780638b662fb914610475578063943dfef1146104fa57806395fe93b814610525578063a2fb117514610550578063ae984858146105cb578063e09c5bd6146105f6578063e7d589741461063a578063e7dea02214610651578063edd3d3d914610682578063edeb5e9e146106d5578063efa1c482146106ec578063f71d96cb14610758575b600080fd5b34801561013957600080fd5b506101666004803603602081101561015057600080fd5b81019080803590602001909291905050506107d3565b6040518080602001828103825283818151815260200191508051906020019060200280838360005b838110156101a957808201518184015260208101905061018e565b505050509050019250505060405180910390f35b3480156101c957600080fd5b506101d2610874565b604051808273ffffffffffffffffffffffffffffffffffffffff1673ffffffffffffffffffffffffffffffffffffffff16815260200191505060405180910390f35b6102566004803603602081101561022a57600080fd5b81019080803573ffffffffffffffffffffffffffffffffffffffff169060200190929190505050610899565b005b34801561026457600080fd5b506102b16004803603604081101561027b57600080fd5b8101908080359060200190929190803573ffffffffffffffffffffffffffffffffffffffff169060200190929190505050610ab1565b6040518082815260200191505060405180910390f35b3480156102d357600080fd5b5061030a600480360360408110156102ea57600080fd5b810190808035906020019092919080359060200190929190505050610ad6565b604051808273ffffffffffffffffffffffffffffffffffffffff1673ffffffffffffffffffffffffffffffffffffffff16815260200191505060405180910390f35b34801561035857600080fd5b506103856004803603602081101561036f57600080fd5b8101908080359060200190929190505050610b23565b005b34801561039357600080fd5b506103d6600480360360208110156103aa57600080fd5b81019080803573ffffffffffffffffffffffffffffffffffffffff169060200190929190505050610cd7565b6040518082815260200191505060405180910390f35b6103f4610cef565b005b6104226004803603602081101561040c57600080fd5b8101908080359060200190929190505050610d79565b005b34801561043057600080fd5b506104736004803603602081101561044757600080fd5b81019080803573ffffffffffffffffffffffffffffffffffffffff16906020019092919050505061114d565b005b34801561048157600080fd5b506104b86004803603604081101561049857600080fd5b810190808035906020019092919080359060200190929190505050611290565b604051808273ffffffffffffffffffffffffffffffffffffffff1673ffffffffffffffffffffffffffffffffffffffff16815260200191505060405180910390f35b34801561050657600080fd5b5061050f6112dd565b6040518082815260200191505060405180910390f35b34801561053157600080fd5b5061053a6112e3565b6040518082815260200191505060405180910390f35b34801561055c57600080fd5b506105896004803603602081101561057357600080fd5b81019080803590602001909291905050506112e9565b604051808273ffffffffffffffffffffffffffffffffffffffff1673ffffffffffffffffffffffffffffffffffffffff16815260200191505060405180910390f35b3480156105d757600080fd5b506105e0611327565b6040518082815260200191505060405180910390f35b6106386004803603602081101561060c57600080fd5b81019080803573ffffffffffffffffffffffffffffffffffffffff16906020019092919050505061132d565b005b34801561064657600080fd5b5061064f6114e5565b005b34801561065d57600080fd5b50610666611d38565b604051808260ff1660ff16815260200191505060405180910390f35b34801561068e57600080fd5b506106bb600480360360208110156106a557600080fd5b8101908080359060200190929190505050611d4b565b604051808215151515815260200191505060405180910390f35b3480156106e157600080fd5b506106ea611d6b565b005b3480156106f857600080fd5b50610701612143565b6040518080602001828103825283818151815260200191508051906020019060200280838360005b83811015610744578082015181840152602081019050610729565b505050509050019250505060405180910390f35b34801561076457600080fd5b506107916004803603602081101561077b57600080fd5b81019080803590602001909291905050506121d1565b604051808273ffffffffffffffffffffffffffffffffffffffff1673ffffffffffffffffffffffffffffffffffffffff16815260200191505060405180910390f35b60606008600083815260200190815260200160002080548060200260200160405190810160405280929190818152602001828054801561086857602002820191906000526020600020905b8160009054906101000a900473ffffffffffffffffffffffffffffffffffffffff1673ffffffffffffffffffffffffffffffffffffffff168152602001906001019080831161081e575b50505050509050919050565b6000809054906101000a900473ffffffffffffffffffffffffffffffffffffffff1681565b6000339050600034905060008111151561091b576040517f08c379a00000000000000000000000000000000000000000000000000000000081526004018080602001828103825260118152602001807f76616c7565206d757374206265203e203000000000000000000000000000000081525060200191505060405180910390fd5b600073ffffffffffffffffffffffffffffffffffffffff168273ffffffffffffffffffffffffffffffffffffffff16141515156109c0576040517f08c379a00000000000000000000000000000000000000000000000000000000081526004018080602001828103825260168152602001807f61646472657373206d75737420626520213d203078300000000000000000000081525060200191505060405180910390fd5b600073ffffffffffffffffffffffffffffffffffffffff168373ffffffffffffffffffffffffffffffffffffffff1614151515610a65576040517f08c379a000000000000000000000000000000000000000000000000000000000815260040180806020018281038252601c8152602001807f6164647265737320616c696173206d75737420626520213d203078300000000081525060200191505060405180910390fd5b8273ffffffffffffffffffffffffffffffffffffffff166108fc829081150290604051600060405180830381858888f19350505050158015610aab573d6000803e3d6000fd5b50505050565b6005602052816000526040600020602052806000526040600020600091509150505481565b600660205281600052604060002081815481101515610af157fe5b906000526020600020016000915091509054906101000a900473ffffffffffffffffffffffffffffffffffffffff1681565b6000809054906101000a900473ffffffffffffffffffffffffffffffffffffffff1673ffffffffffffffffffffffffffffffffffffffff163373ffffffffffffffffffffffffffffffffffffffff16141515610be7576040517f08c379a00000000000000000000000000000000000000000000000000000000081526004018080602001828103825260128152602001807f73656e646572206d7573742062652063656f000000000000000000000000000081525060200191505060405180910390fd5b6000601454141515610bf857600080fd5b600a601360009054906101000a900460ff1660ff16101515610c1957600080fd5b806009601360009054906101000a900460ff1660ff16600a81101515610c3b57fe5b0181905550600160076000601360009054906101000a900460ff1660ff16815260200190815260200160002060006101000a81548160ff0219169083151502179055507f50da49f24fee0529864a7b8b3fa6cde86950c268e4a8582cf7ac17d3d4c1498d601360009054906101000a900460ff16604051808260ff1660ff16815260200191505060405180910390a16005430160158190555050565b60046020528060005260406000206000915090505481565b600034111515610d67576040517f08c379a00000000000000000000000000000000000000000000000000000000081526004018080602001828103825260128152602001807f626f756e7479206d757374206265203e2030000000000000000000000000000081525060200191505060405180910390fd5b34600160008282540192505081905550565b6015544311151515610d8a57600080fd5b60076000601360009054906101000a900460ff1660ff16815260200190815260200160002060009054906101000a900460ff161515610dc857600080fd5b600a601360009054906101000a900460ff1660ff16101515610e52576040517f08c379a000000000000000000000000000000000000000000000000000000000815260040180806020018281038252601e8152602001807f6f6e6520726f756e6420686173206f6e6c79203130207175657374696f6e000081525060200191505060405180910390fd5b6000809054906101000a900473ffffffffffffffffffffffffffffffffffffffff1673ffffffffffffffffffffffffffffffffffffffff163373ffffffffffffffffffffffffffffffffffffffff1614151515610eae57600080fd5b671bc16d674ec8000034111515610f2d576040517f08c379a00000000000000000000000000000000000000000000000000000000081526004018080602001828103825260148152602001807f666565206d757374206265203e203220544f4d4f00000000000000000000000081525060200191505060405180910390fd5b610f5b60066000601360009054906101000a900460ff1660ff1681526020019081526020016000203361220f565b151515610fd0576040517f08c379a000000000000000000000000000000000000000000000000000000000815260040180806020018281038252601a8152602001807f706c6179657220686173206f6e6c79206f6e6520616e7377657200000000000081525060200191505060405180910390fd5b610fdc601454346122bb565b60148190555060066000601360009054906101000a900460ff1660ff1681526020019081526020016000203390806001815401808255809150509060018203906000526020600020016000909192909190916101000a81548173ffffffffffffffffffffffffffffffffffffffff021916908373ffffffffffffffffffffffffffffffffffffffff160217905550508060056000601360009054906101000a900460ff1660ff16815260200190815260200160002060003373ffffffffffffffffffffffffffffffffffffffff1673ffffffffffffffffffffffffffffffffffffffff168152602001908152602001600020819055506110dd60033361220f565b151561114a5760033390806001815401808255809150509060018203906000526020600020016000909192909190916101000a81548173ffffffffffffffffffffffffffffffffffffffff021916908373ffffffffffffffffffffffffffffffffffffffff160217905550505b50565b6000809054906101000a900473ffffffffffffffffffffffffffffffffffffffff1673ffffffffffffffffffffffffffffffffffffffff163373ffffffffffffffffffffffffffffffffffffffff16141515611211576040517f08c379a00000000000000000000000000000000000000000000000000000000081526004018080602001828103825260128152602001807f73656e646572206d7573742062652063656f000000000000000000000000000081525060200191505060405180910390fd5b600073ffffffffffffffffffffffffffffffffffffffff168173ffffffffffffffffffffffffffffffffffffffff161415151561124d57600080fd5b806000806101000a81548173ffffffffffffffffffffffffffffffffffffffff021916908373ffffffffffffffffffffffffffffffffffffffff16021790555050565b6008602052816000526040600020818154811015156112ab57fe5b906000526020600020016000915091509054906101000a900473ffffffffffffffffffffffffffffffffffffffff1681565b60015481565b60155481565b6002818154811015156112f857fe5b906000526020600020016000915054906101000a900473ffffffffffffffffffffffffffffffffffffffff1681565b60145481565b6000339050600066b1a2bc2ec500003403905060008111151561134f57600080fd5b600073ffffffffffffffffffffffffffffffffffffffff168373ffffffffffffffffffffffffffffffffffffffff16141515156113f4576040517f08c379a00000000000000000000000000000000000000000000000000000000081526004018080602001828103825260168152602001807f61646472657373206d75737420626520213d203078300000000000000000000081525060200191505060405180910390fd5b600073ffffffffffffffffffffffffffffffffffffffff168273ffffffffffffffffffffffffffffffffffffffff1614151515611499576040517f08c379a000000000000000000000000000000000000000000000000000000000815260040180806020018281038252601c8152602001807f6164647265737320616c696173206d75737420626520213d203078300000000081525060200191505060405180910390fd5b8273ffffffffffffffffffffffffffffffffffffffff166108fc829081150290604051600060405180830381858888f193505050501580156114df573d6000803e3d6000fd5b50505050565b6000809054906101000a900473ffffffffffffffffffffffffffffffffffffffff1673ffffffffffffffffffffffffffffffffffffffff163373ffffffffffffffffffffffffffffffffffffffff161415156115a9576040517f08c379a00000000000000000000000000000000000000000000000000000000081526004018080602001828103825260128152602001807f73656e646572206d7573742062652063656f000000000000000000000000000081525060200191505060405180910390fd5b6000601454111515611623576040517f08c379a00000000000000000000000000000000000000000000000000000000081526004018080602001828103825260118152602001807f4174206c65617374203120616e7377657200000000000000000000000000000081525060200191505060405180910390fd5b6015544311151561169c576040517f08c379a000000000000000000000000000000000000000000000000000000000815260040180806020018281038252601e8152602001807f53686172696e67206d75737420626520616674657220646561646c696e65000081525060200191505060405180910390fd5b600a601360009054906101000a900460ff1660ff16101515611726576040517f08c379a000000000000000000000000000000000000000000000000000000000815260040180806020018281038252601e8152602001807f6f6e6520726f756e6420686173206f6e6c79203130207175657374696f6e000081525060200191505060405180910390fd5b60008090505b60066000601360009054906101000a900460ff1660ff168152602001908152602001600020805490508110156119e2576009601360009054906101000a900460ff1660ff16600a8110151561177d57fe5b015460056000601360009054906101000a900460ff1660ff168152602001908152602001600020600060066000601360009054906101000a900460ff1660ff168152602001908152602001600020848154811015156117d857fe5b9060005260206000200160009054906101000a900473ffffffffffffffffffffffffffffffffffffffff1673ffffffffffffffffffffffffffffffffffffffff1673ffffffffffffffffffffffffffffffffffffffff1681526020019081526020016000205414156119d55760086000601360009054906101000a900460ff1660ff16815260200190815260200160002060066000601360009054906101000a900460ff1660ff1681526020019081526020016000208281548110151561189b57fe5b9060005260206000200160009054906101000a900473ffffffffffffffffffffffffffffffffffffffff1690806001815401808255809150509060018203906000526020600020016000909192909190916101000a81548173ffffffffffffffffffffffffffffffffffffffff021916908373ffffffffffffffffffffffffffffffffffffffff160217905550506004600060066000601360009054906101000a900460ff1660ff1681526020019081526020016000208381548110151561195f57fe5b9060005260206000200160009054906101000a900473ffffffffffffffffffffffffffffffffffffffff1673ffffffffffffffffffffffffffffffffffffffff1673ffffffffffffffffffffffffffffffffffffffff168152602001908152602001600020600081548092919060010191905055505b808060010191505061172c565b50600060086000601360009054906101000a900460ff1660ff168152602001908152602001600020805490501115611b7b57600060086000601360009054906101000a900460ff1660ff16815260200190815260200160002080549050601454811515611a4b57fe5b04905060008090505b60086000601360009054906101000a900460ff1660ff168152602001908152602001600020805490508160ff161015611b3a5760086000601360009054906101000a900460ff1660ff1681526020019081526020016000208160ff16815481101515611abc57fe5b9060005260206000200160009054906101000a900473ffffffffffffffffffffffffffffffffffffffff1673ffffffffffffffffffffffffffffffffffffffff166108fc839081150290604051600060405180830381858888f19350505050158015611b2c573d6000803e3d6000fd5b508080600101915050611a54565b506013600081819054906101000a900460ff168092919060010191906101000a81548160ff021916908360ff16021790555050600060148190555050611b98565b600a601360006101000a81548160ff021916908360ff1602179055505b6009601360009054906101000a900460ff1660ff16101515611d365760008090505b6006600060098152602001908152602001600020805490508160ff161015611d3457600a6004600060066000600981526020019081526020016000208460ff16815481101515611c0657fe5b9060005260206000200160009054906101000a900473ffffffffffffffffffffffffffffffffffffffff1673ffffffffffffffffffffffffffffffffffffffff1673ffffffffffffffffffffffffffffffffffffffff168152602001908152602001600020541415611d2757600260066000600981526020019081526020016000208260ff16815481101515611c9857fe5b9060005260206000200160009054906101000a900473ffffffffffffffffffffffffffffffffffffffff1690806001815401808255809150509060018203906000526020600020016000909192909190916101000a81548173ffffffffffffffffffffffffffffffffffffffff021916908373ffffffffffffffffffffffffffffffffffffffff160217905550505b8080600101915050611bba565b505b565b601360009054906101000a900460ff1681565b60076020528060005260406000206000915054906101000a900460ff1681565b6000809054906101000a900473ffffffffffffffffffffffffffffffffffffffff1673ffffffffffffffffffffffffffffffffffffffff163373ffffffffffffffffffffffffffffffffffffffff16141515611e2f576040517f08c379a00000000000000000000000000000000000000000000000000000000081526004018080602001828103825260128152602001807f73656e646572206d7573742062652063656f000000000000000000000000000081525060200191505060405180910390fd5b6000600154111515611ea9576040517f08c379a00000000000000000000000000000000000000000000000000000000081526004018080602001828103825260128152602001807f426f756e7479206d757374206265203e2030000000000000000000000000000081525060200191505060405180910390fd5b60155443111515611f22576040517f08c379a000000000000000000000000000000000000000000000000000000000815260040180806020018281038252601e8152602001807f53686172696e67206d75737420626520616674657220646561646c696e65000081525060200191505060405180910390fd5b6009601360009054906101000a900460ff1660ff16111515611fd2576040517f08c379a00000000000000000000000000000000000000000000000000000000081526004018080602001828103825260288152602001807f53686172696e6720626f756e7479206d7573742062652061667465722031302081526020017f7175657374696f6e00000000000000000000000000000000000000000000000081525060400191505060405180910390fd5b600060028054905011156120b95760006002805490503073ffffffffffffffffffffffffffffffffffffffff163181151561200957fe5b04905060008090505b6002805490508160ff1610156120b25760028160ff1681548110151561203457fe5b9060005260206000200160009054906101000a900473ffffffffffffffffffffffffffffffffffffffff1673ffffffffffffffffffffffffffffffffffffffff166108fc839081150290604051600060405180830381858888f193505050501580156120a4573d6000803e3d6000fd5b508080600101915050612012565b5050612139565b6000809054906101000a900473ffffffffffffffffffffffffffffffffffffffff1673ffffffffffffffffffffffffffffffffffffffff166108fc3073ffffffffffffffffffffffffffffffffffffffff16319081150290604051600060405180830381858888f19350505050158015612137573d6000803e3d6000fd5b505b6000600181905550565b606060038054806020026020016040519081016040528092919081815260200182805480156121c757602002820191906000526020600020905b8160009054906101000a900473ffffffffffffffffffffffffffffffffffffffff1673ffffffffffffffffffffffffffffffffffffffff168152602001906001019080831161217d575b5050505050905090565b6003818154811015156121e057fe5b906000526020600020016000915054906101000a900473ffffffffffffffffffffffffffffffffffffffff1681565b6000806000905060008090505b84805490508160ff1610156122b0578373ffffffffffffffffffffffffffffffffffffffff16858260ff1681548110151561225357fe5b9060005260206000200160009054906101000a900473ffffffffffffffffffffffffffffffffffffffff1673ffffffffffffffffffffffffffffffffffffffff1614156122a357600191506122b0565b808060010191505061221c565b508091505092915050565b600081830190508281101515156122d157600080fd5b9291505056fea165627a7a72305820f6496256a992733309154ff9fb082d97d449f402c9a1176fa0e5a186f8c661420029",
  "source": "pragma solidity ^0.5.0;\n\nimport \"./AccessControl.sol\";\n\ncontract Game is AccessControl {\n    uint public bounty;\n    address payable[] public winners;\n\n    address payable[] public players;\n    mapping (address=>uint) public winCount;\n    \n    mapping (uint => mapping(address => bytes32)) public questionAnswer; // lu cu tr li ca cc a ch  mi cu hi \n    mapping (uint => address payable[]) public questionPlayer; // lu mng nhng a ch tr li trong mi cu hi \n    mapping (uint => bool) public asked; // check xem CEO  a ra cu hi hay cha \n    mapping (uint => address payable[]) public questionWinner; // lu nhng a ch tr li ng  mi cu hi \n    // mapping (address => uint) public balanceAlias;\n    // mapping (address => address) public playerToAlias;\n\n    bytes32[10] private correctAnswer;\n    uint8 public currentQuestion = 0;\n    uint256 public questionBounty;\n    uint public deadlineQuestion;\n\n    event NewQuestion(uint8 currentQuestion);\n    \n    constructor(address payable _ceoAddress) public {\n        ceoAddress = _ceoAddress;\n    }\n\n    function setBounty() \n        public \n        payable \n    {\n        require(msg.value > 0, \"bounty must be > 0\");\n        bounty += msg.value;\n    }\n\n    modifier hasBounty() {\n        require(bounty > 0, \"Bounty must be > 0\");\n        _;\n    }\n\n    modifier beforeDeadline() {\n        require(block.number <= deadlineQuestion);\n        _;\n    }\n\n    function transferAlias(address payable playerAlias) external payable {\n        address payable player = msg.sender;\n        uint value = msg.value;\n\n        require(value > 0, \"value must be > 0\");\n        require(player != address(0x0), \"address must be != 0x0\");\n        require(playerAlias != address(0x0), \"address alias must be != 0x0\");\n\n        playerAlias.transfer(value);\n    }\n\n    function withdrawFromAlias(address payable player) external payable {\n        address payable playerAlias = msg.sender;\n        uint amount = msg.value - 50000000000000000;\n\n        require(amount > 0);\n        require(player != address(0x0), \"address must be != 0x0\");\n        require(playerAlias != address(0x0), \"address alias must be != 0x0\");\n\n        player.transfer(amount);\n    }\n\n    // check 1 address  tn ti trong 1 mng hay cha \n    function containArray(address payable[] storage array, address element) \n        internal \n        returns (bool) \n    {\n        bool found = false;\n        for(uint8 i = 0; i < array.length; i++) {\n            if(array[i] == element) {\n                found = true;\n                break;\n            }\n        }\n        return found;\n    }\n\n    function setQuestion(bytes32 _correctAnswer) \n        onlyCeo\n        external \n    {\n        require(questionBounty == 0); // trnh trng hp ngi chi ang chi ceo t cu mi \n        require(currentQuestion < 10);\n        correctAnswer[currentQuestion] = _correctAnswer;\n        asked[currentQuestion] = true;\n        emit NewQuestion(currentQuestion);\n        deadlineQuestion = block.number + 5;\n    }\n\n    function answer(bytes32 _answer) \n        beforeDeadline \n        external \n        payable \n    {\n        require(asked[currentQuestion]); // ch c tr li sau khi cu hi  c a ra \n        require(currentQuestion < 10, \"one round has only 10 question\");\n        require(msg.sender != ceoAddress);\n        require(msg.value > 2 * 10 ** 18, \"fee must be > 2 TOMO\");\n        require(!containArray(questionPlayer[currentQuestion], msg.sender), \"player has only one answer\");\n        questionBounty = safeAdd(questionBounty, msg.value);\n        questionPlayer[currentQuestion].push(address(uint160(msg.sender)));\n        questionAnswer[currentQuestion][msg.sender] = _answer;\n        if(!containArray(players, msg.sender)) {\n            players.push(msg.sender);\n        }\n    }\n\n    function shareQuestionBounty() \n        onlyCeo \n        external \n    {\n        require(questionBounty > 0, \"At least 1 answer\");\n        require(block.number > deadlineQuestion, \"Sharing must be after deadline\");\n        require(currentQuestion < 10, \"one round has only 10 question\");\n        \n        for(uint i = 0; i < questionPlayer[currentQuestion].length; i++) {\n            if(questionAnswer[currentQuestion][questionPlayer[currentQuestion][i]] == correctAnswer[currentQuestion]) {\n                questionWinner[currentQuestion].push(questionPlayer[currentQuestion][i]);\n                winCount[questionPlayer[currentQuestion][i]] ++;\n            }\n        }\n        \n        if(questionWinner[currentQuestion].length > 0) {\n            uint bountySharing = questionBounty / questionWinner[currentQuestion].length;\n            for(uint8 i = 0; i < questionWinner[currentQuestion].length; i++) {\n                questionWinner[currentQuestion][i].transfer(bountySharing);\n            }\n            currentQuestion ++;\n            questionBounty = 0;\n        } \n        else {\n            currentQuestion = 10;\n        }\n        \n        /*\n            Mun n c bounty th t nht phi tham gia tr li c 10 cu hi\n            => ch cn xt trong s nhng ngi tham gia  cu cui  tm ra ngi c winCount = 10 \n        */ \n        if(currentQuestion >= 9) {\n            for(uint8 i = 0; i < questionPlayer[9].length; i++) {\n                if(winCount[questionPlayer[9][i]] == 10) {\n                    winners.push(questionPlayer[9][i]); \n                }\n            }\n        }\n    }\n\n    function shareBounty() \n        onlyCeo \n        hasBounty \n        external \n    {\n        require(block.number > deadlineQuestion, \"Sharing must be after deadline\");\n        require(currentQuestion > 9, \"Sharing bounty must be after 10 question\");\n        \n        if(winners.length > 0) {\n            uint bountySharing = address(this).balance / winners.length;\n            for(uint8 i = 0; i < winners.length; i++) {\n                winners[i].transfer(bountySharing);\n            }\n        } \n        else {\n            ceoAddress.transfer(address(this).balance);\n        }\n        \n        bounty = 0;\n    }\n\n    function safeAdd(uint256 a, uint256 b) internal pure returns (uint256 c) {\n        c = a + b;\n        require(c >= a);\n    }\n    function safeSub(uint256 a, uint256 b) internal pure returns (uint256 c) {\n        require(b <= a);\n        c = a - b;\n    }\n    function safeMul(uint256 a, uint256 b) internal pure returns (uint256 c) {\n        c = a * b;\n        require(a == 0 || c / a == b);\n    }\n    function safeDiv(uint256 a, uint256 b) internal pure returns (uint256 c) {\n        require(b > 0);\n        c = a / b;\n    }\n\n    function getAllPlayers() public view returns (address payable[] memory) {\n        return players;\n    }\n\n    function getCorrectAddressByQuestion(uint questionIndex) public view returns (address payable[] memory) {\n        return questionWinner[questionIndex];\n    }\n}\n",
  "sourcePath": "/home/le.thanh.cong/Desktop/tomoGame/contracts/Game.sol",
  "compiler": {
    "name": "solc",
    "version": "0.5.0+commit.1d4f565a.Emscripten.clang"
  },
  "schemaVersion": "3.0.6",
  "updatedAt": "2019-08-23T07:35:42.395Z",
  "devdoc": {
    "methods": {}
  },
  "userdoc": {
    "methods": {}
  }
}